{
  "contractName": "NodesManager",
  "abi": [
    {
      "inputs": [
        {
          "internalType": "uint256",
          "name": "_modify_frequency",
          "type": "uint256"
        }
      ],
      "payable": false,
      "stateMutability": "nonpayable",
      "type": "constructor"
    },
    {
      "anonymous": false,
      "inputs": [
        {
          "indexed": false,
          "internalType": "uint256",
          "name": "height",
          "type": "uint256"
        }
      ],
      "name": "BLOCKNUMBER",
      "type": "event"
    },
    {
      "anonymous": false,
      "inputs": [
        {
          "indexed": false,
          "internalType": "address",
          "name": "operator",
          "type": "address"
        }
      ],
      "name": "OPERATOR",
      "type": "event"
    },
    {
      "constant": true,
      "inputs": [],
      "name": "modify_frequency",
      "outputs": [
        {
          "internalType": "uint256",
          "name": "",
          "type": "uint256"
        }
      ],
      "payable": false,
      "stateMutability": "view",
      "type": "function"
    },
    {
      "constant": true,
      "inputs": [],
      "name": "getAdmin",
      "outputs": [
        {
          "internalType": "address",
          "name": "",
          "type": "address"
        }
      ],
      "payable": false,
      "stateMutability": "view",
      "type": "function"
    },
    {
      "constant": false,
      "inputs": [
        {
          "internalType": "uint256",
          "name": "_modify_frequency",
          "type": "uint256"
        }
      ],
      "name": "setModifyFrequency",
      "outputs": [],
      "payable": false,
      "stateMutability": "nonpayable",
      "type": "function"
    },
    {
      "constant": false,
      "inputs": [
        {
          "internalType": "address",
          "name": "operator",
          "type": "address"
        }
      ],
      "name": "addNode",
      "outputs": [],
      "payable": false,
      "stateMutability": "nonpayable",
      "type": "function"
    },
    {
      "constant": false,
      "inputs": [
        {
          "internalType": "address",
          "name": "operator",
          "type": "address"
        }
      ],
      "name": "removeNode",
      "outputs": [],
      "payable": false,
      "stateMutability": "nonpayable",
      "type": "function"
    },
    {
      "constant": false,
      "inputs": [
        {
          "internalType": "string",
          "name": "pubkey",
          "type": "string"
        },
        {
          "internalType": "string",
          "name": "networkAddresses",
          "type": "string"
        }
      ],
      "name": "updateNodeConfig",
      "outputs": [],
      "payable": false,
      "stateMutability": "nonpayable",
      "type": "function"
    },
    {
      "constant": true,
      "inputs": [],
      "name": "getOperatorsForP2p",
      "outputs": [
        {
          "internalType": "address[]",
          "name": "",
          "type": "address[]"
        }
      ],
      "payable": false,
      "stateMutability": "view",
      "type": "function"
    },
    {
      "constant": true,
      "inputs": [
        {
          "internalType": "uint256",
          "name": "sync_height",
          "type": "uint256"
        },
        {
          "internalType": "uint256",
          "name": "commit_height",
          "type": "uint256"
        },
        {
          "internalType": "uint256",
          "name": "target_height",
          "type": "uint256"
        }
      ],
      "name": "getOperatorForConsensus",
      "outputs": [
        {
          "internalType": "address[]",
          "name": "",
          "type": "address[]"
        }
      ],
      "payable": false,
      "stateMutability": "view",
      "type": "function"
    },
    {
      "constant": true,
      "inputs": [],
      "name": "getAvailableNodesForP2p",
      "outputs": [
        {
          "components": [
            {
              "internalType": "string",
              "name": "pubkey",
              "type": "string"
            },
            {
              "internalType": "string",
              "name": "networkAddresses",
              "type": "string"
            }
          ],
          "internalType": "struct NodesManager.Config[]",
          "name": "",
          "type": "tuple[]"
        }
      ],
      "payable": false,
      "stateMutability": "view",
      "type": "function"
    },
    {
      "constant": true,
      "inputs": [
        {
          "internalType": "uint256",
          "name": "sync_height",
          "type": "uint256"
        },
        {
          "internalType": "uint256",
          "name": "commit_height",
          "type": "uint256"
        }
      ],
      "name": "getAvailableNodesForConsensus",
      "outputs": [
        {
          "components": [
            {
              "internalType": "string",
              "name": "pubkey",
              "type": "string"
            },
            {
              "internalType": "string",
              "name": "networkAddresses",
              "type": "string"
            }
          ],
          "internalType": "struct NodesManager.Config[]",
          "name": "",
          "type": "tuple[]"
        }
      ],
      "payable": false,
      "stateMutability": "view",
      "type": "function"
    },
    {
      "constant": true,
      "inputs": [],
      "name": "getLastChanged",
      "outputs": [
        {
          "internalType": "uint256",
          "name": "",
          "type": "uint256"
        }
      ],
      "payable": false,
      "stateMutability": "view",
      "type": "function"
    }
  ],
  "bytecode": "0x60806040523480156200001157600080fd5b5060405162002d8f38038062002d8f83398181016040526200003791908101906200009d565b33600660006101000a81548173ffffffffffffffffffffffffffffffffffffffff021916908373ffffffffffffffffffffffffffffffffffffffff1602179055508060098190555050620000ed565b6000815190506200009781620000d3565b92915050565b600060208284031215620000b057600080fd5b6000620000c08482850162000086565b91505092915050565b6000819050919050565b620000de81620000c9565b8114620000ea57600080fd5b50565b612c9280620000fd6000396000f3fe608060405234801561001057600080fd5b50600436106100a95760003560e01c80636e9960c3116100715780636e9960c3146101525780639d95f1cc146101705780639de173c81461018c578063a0940bd1146101bc578063a1b1c7f7146101da578063b2b99ec9146101f8576100a9565b8063155571af146100ae578063217459f4146100cc57806339c9d85c146100e857806348f485d7146101045780634d92740014610122575b600080fd5b6100b6610214565b6040516100c39190612ae7565b60405180910390f35b6100e660048036036100e19190810190612696565b61021e565b005b61010260048036036100fd919081019061270b565b610336565b005b61010c61039a565b6040516101199190612a65565b60405180910390f35b61013c60048036036101379190810190612734565b6103bc565b6040516101499190612a65565b60405180910390f35b61015a6103ee565b6040516101679190612a28565b60405180910390f35b61018a6004803603610185919081019061266d565b610418565b005b6101a660048036036101a19190810190612770565b610547565b6040516101b39190612a43565b60405180910390f35b6101c461055d565b6040516101d19190612ae7565b60405180910390f35b6101e2610563565b6040516101ef9190612a43565b60405180910390f35b610212600480360361020d919081019061266d565b610572565b005b6000600854905090565b610227336107a3565b610266576040517f08c379a000000000000000000000000000000000000000000000000000000000815260040161025d90612a87565b60405180910390fd5b6102f93385858080601f016020809104026020016040519081016040528093929190818152602001838380828437600081840152601f19601f8201169050808301925050505050505084848080601f016020809104026020016040519081016040528093929190818152602001838380828437600081840152601f19601f82011690508083019250505050505050610904565b7fc3a08a0c91738607f082d7db0140ec5914bb562daafb5988afe56680a50ae215436040516103289190612ae7565b60405180910390a150505050565b600660009054906101000a900473ffffffffffffffffffffffffffffffffffffffff1673ffffffffffffffffffffffffffffffffffffffff163373ffffffffffffffffffffffffffffffffffffffff161461039057600080fd5b8060098190555050565b6060806103a5610a1b565b905060606103b282610d2b565b9050809250505090565b6060600043905060606103d0858584611117565b905060606103e082868503611eea565b905080935050505092915050565b6000600660009054906101000a900473ffffffffffffffffffffffffffffffffffffffff16905090565b600660009054906101000a900473ffffffffffffffffffffffffffffffffffffffff1673ffffffffffffffffffffffffffffffffffffffff163373ffffffffffffffffffffffffffffffffffffffff161461047257600080fd5b600954600760008373ffffffffffffffffffffffffffffffffffffffff1673ffffffffffffffffffffffffffffffffffffffff16815260200190815260200160002054014310156104f8576040517f08c379a00000000000000000000000000000000000000000000000000000000081526004016104ef90612aa7565b60405180910390fd5b610501816121b2565b436008819055507fc3a08a0c91738607f082d7db0140ec5914bb562daafb5988afe56680a50ae21560048054905060405161053c9190612ae7565b60405180910390a150565b6060610554848484611117565b90509392505050565b60095481565b606061056d610a1b565b905090565b600660009054906101000a900473ffffffffffffffffffffffffffffffffffffffff1673ffffffffffffffffffffffffffffffffffffffff163373ffffffffffffffffffffffffffffffffffffffff16146105cc57600080fd5b600954600760008373ffffffffffffffffffffffffffffffffffffffff1673ffffffffffffffffffffffffffffffffffffffff1681526020019081526020016000205401431015610652576040517f08c379a000000000000000000000000000000000000000000000000000000000815260040161064990612aa7565b60405180910390fd5b61065b816107a3565b61069a576040517f08c379a000000000000000000000000000000000000000000000000000000000815260040161069190612a87565b60405180910390fd5b604051806040016040528043815260200160011515815250600160008373ffffffffffffffffffffffffffffffffffffffff1673ffffffffffffffffffffffffffffffffffffffff1681526020019081526020016000206000820151816000015560208201518160010160006101000a81548160ff0219169083151502179055509050504360088190555043600760008373ffffffffffffffffffffffffffffffffffffffff1673ffffffffffffffffffffffffffffffffffffffff168152602001908152602001600020819055507fc3a08a0c91738607f082d7db0140ec5914bb562daafb5988afe56680a50ae215436040516107989190612ae7565b60405180910390a150565b6000600115156000808473ffffffffffffffffffffffffffffffffffffffff1673ffffffffffffffffffffffffffffffffffffffff16815260200190815260200160002060010160009054906101000a900460ff16151514156108fa5760001515600160008473ffffffffffffffffffffffffffffffffffffffff1673ffffffffffffffffffffffffffffffffffffffff16815260200190815260200160002060010160009054906101000a900460ff161515141561086557600190506108ff565b600160008373ffffffffffffffffffffffffffffffffffffffff1673ffffffffffffffffffffffffffffffffffffffff168152602001908152602001600020600001546000808473ffffffffffffffffffffffffffffffffffffffff1673ffffffffffffffffffffffffffffffffffffffff1681526020019081526020016000206000015411156108f957600190506108ff565b5b600090505b919050565b604051806040016040528083815260200182815250600260008573ffffffffffffffffffffffffffffffffffffffff1673ffffffffffffffffffffffffffffffffffffffff16815260200190815260200160002060004381526020019081526020016000206000820151816000019080519060200190610985929190612520565b5060208201518160010190805190602001906109a2929190612520565b50905050600360008473ffffffffffffffffffffffffffffffffffffffff1673ffffffffffffffffffffffffffffffffffffffff16815260200190815260200160002043908060018154018082558091505090600182039060005260206000200160009091929091909150555043600881905550505050565b6060600080905060008090505b600480549050811015610b44576001600060048381548110610a4657fe5b9060005260206000200160009054906101000a900473ffffffffffffffffffffffffffffffffffffffff1673ffffffffffffffffffffffffffffffffffffffff1673ffffffffffffffffffffffffffffffffffffffff1681526020019081526020016000206000015460008060048481548110610abf57fe5b9060005260206000200160009054906101000a900473ffffffffffffffffffffffffffffffffffffffff1673ffffffffffffffffffffffffffffffffffffffff1673ffffffffffffffffffffffffffffffffffffffff168152602001908152602001600020600001541015610b375781806001019250505b8080600101915050610a28565b5060608160048054905003604051908082528060200260200182016040528015610b7d5781602001602082028038833980820191505090505b5090506000915060008090505b600480549050811015610d22576001600060048381548110610ba857fe5b9060005260206000200160009054906101000a900473ffffffffffffffffffffffffffffffffffffffff1673ffffffffffffffffffffffffffffffffffffffff1673ffffffffffffffffffffffffffffffffffffffff1681526020019081526020016000206000015460008060048481548110610c2157fe5b9060005260206000200160009054906101000a900473ffffffffffffffffffffffffffffffffffffffff1673ffffffffffffffffffffffffffffffffffffffff1673ffffffffffffffffffffffffffffffffffffffff168152602001908152602001600020600001541115610d155760048181548110610c9d57fe5b9060005260206000200160009054906101000a900473ffffffffffffffffffffffffffffffffffffffff16828480600101955081518110610cda57fe5b602002602001019073ffffffffffffffffffffffffffffffffffffffff16908173ffffffffffffffffffffffffffffffffffffffff16815250505b8080600101915050610b8a565b50809250505090565b6060600080905060008090505b8351811015610db457600060036000868481518110610d5357fe5b602002602001015173ffffffffffffffffffffffffffffffffffffffff1673ffffffffffffffffffffffffffffffffffffffff1681526020019081526020016000208054905014610da75781806001019250505b8080600101915050610d38565b50606081604051908082528060200260200182016040528015610df157816020015b610dde6125a0565b815260200190600190039081610dd65790505b5090506000915060008090505b845181101561110c57600060036000878481518110610e1957fe5b602002602001015173ffffffffffffffffffffffffffffffffffffffff1673ffffffffffffffffffffffffffffffffffffffff16815260200190815260200160002080549050146110ff57600060036000878481518110610e7657fe5b602002602001015173ffffffffffffffffffffffffffffffffffffffff1673ffffffffffffffffffffffffffffffffffffffff168152602001908152602001600020805490509050600060036000888581518110610ed057fe5b602002602001015173ffffffffffffffffffffffffffffffffffffffff1673ffffffffffffffffffffffffffffffffffffffff1681526020019081526020016000206001830381548110610f2057fe5b9060005260206000200154905060026000888581518110610f3d57fe5b602002602001015173ffffffffffffffffffffffffffffffffffffffff1673ffffffffffffffffffffffffffffffffffffffff1681526020019081526020016000206000828152602001908152602001600020604051806040016040529081600082018054600181600116156101000203166002900480601f0160208091040260200160405190810160405280929190818152602001828054600181600116156101000203166002900480156110345780601f1061100957610100808354040283529160200191611034565b820191906000526020600020905b81548152906001019060200180831161101757829003601f168201915b50505050508152602001600182018054600181600116156101000203166002900480601f0160208091040260200160405190810160405280929190818152602001828054600181600116156101000203166002900480156110d65780601f106110ab576101008083540402835291602001916110d6565b820191906000526020600020905b8154815290600101906020018083116110b957829003601f168201915b5050505050815250508486806001019750815181106110f157fe5b602002602001018190525050505b8080600101915050610dfe565b508092505050919050565b6060600080905060008090505b60048054905081101561172757600115156000806004848154811061114557fe5b9060005260206000200160009054906101000a900473ffffffffffffffffffffffffffffffffffffffff1673ffffffffffffffffffffffffffffffffffffffff1673ffffffffffffffffffffffffffffffffffffffff16815260200190815260200160002060010160009054906101000a900460ff161515141561171a576000151560016000600484815481106111d857fe5b9060005260206000200160009054906101000a900473ffffffffffffffffffffffffffffffffffffffff1673ffffffffffffffffffffffffffffffffffffffff1673ffffffffffffffffffffffffffffffffffffffff16815260200190815260200160002060010160009054906101000a900460ff161515141561136d578484036000806004848154811061126957fe5b9060005260206000200160009054906101000a900473ffffffffffffffffffffffffffffffffffffffff1673ffffffffffffffffffffffffffffffffffffffff1673ffffffffffffffffffffffffffffffffffffffff168152602001908152602001600020600001541115801561135a5750858403600080600484815481106112ee57fe5b9060005260206000200160009054906101000a900473ffffffffffffffffffffffffffffffffffffffff1673ffffffffffffffffffffffffffffffffffffffff1673ffffffffffffffffffffffffffffffffffffffff1681526020019081526020016000206000015411155b156113685781806001019250505b611719565b6000806004838154811061137d57fe5b9060005260206000200160009054906101000a900473ffffffffffffffffffffffffffffffffffffffff1673ffffffffffffffffffffffffffffffffffffffff1673ffffffffffffffffffffffffffffffffffffffff1681526020019081526020016000206000015460016000600484815481106113f757fe5b9060005260206000200160009054906101000a900473ffffffffffffffffffffffffffffffffffffffff1673ffffffffffffffffffffffffffffffffffffffff1673ffffffffffffffffffffffffffffffffffffffff16815260200190815260200160002060000154111561160557848403600160006004848154811061147a57fe5b9060005260206000200160009054906101000a900473ffffffffffffffffffffffffffffffffffffffff1673ffffffffffffffffffffffffffffffffffffffff1673ffffffffffffffffffffffffffffffffffffffff16815260200190815260200160002060000154116114ed57611600565b8484036000806004848154811061150057fe5b9060005260206000200160009054906101000a900473ffffffffffffffffffffffffffffffffffffffff1673ffffffffffffffffffffffffffffffffffffffff1673ffffffffffffffffffffffffffffffffffffffff16815260200190815260200160002060000154111580156115f157508584036000806004848154811061158557fe5b9060005260206000200160009054906101000a900473ffffffffffffffffffffffffffffffffffffffff1673ffffffffffffffffffffffffffffffffffffffff1673ffffffffffffffffffffffffffffffffffffffff1681526020019081526020016000206000015411155b156115ff5781806001019250505b5b611718565b8484036000806004848154811061161857fe5b9060005260206000200160009054906101000a900473ffffffffffffffffffffffffffffffffffffffff1673ffffffffffffffffffffffffffffffffffffffff1673ffffffffffffffffffffffffffffffffffffffff168152602001908152602001600020600001541115801561170957508584036000806004848154811061169d57fe5b9060005260206000200160009054906101000a900473ffffffffffffffffffffffffffffffffffffffff1673ffffffffffffffffffffffffffffffffffffffff1673ffffffffffffffffffffffffffffffffffffffff1681526020019081526020016000206000015411155b156117175781806001019250505b5b5b5b8080600101915050611124565b506060816040519080825280602002602001820160405280156117595781602001602082028038833980820191505090505b5090506000915060008090505b600480549050811015611edd57600115156000806004848154811061178757fe5b9060005260206000200160009054906101000a900473ffffffffffffffffffffffffffffffffffffffff1673ffffffffffffffffffffffffffffffffffffffff1673ffffffffffffffffffffffffffffffffffffffff16815260200190815260200160002060010160009054906101000a900460ff1615151415611ed05760001515600160006004848154811061181a57fe5b9060005260206000200160009054906101000a900473ffffffffffffffffffffffffffffffffffffffff1673ffffffffffffffffffffffffffffffffffffffff1673ffffffffffffffffffffffffffffffffffffffff16815260200190815260200160002060010160009054906101000a900460ff1615151415611a2b57858503600080600484815481106118ab57fe5b9060005260206000200160009054906101000a900473ffffffffffffffffffffffffffffffffffffffff1673ffffffffffffffffffffffffffffffffffffffff1673ffffffffffffffffffffffffffffffffffffffff168152602001908152602001600020600001541115801561199c57508685036000806004848154811061193057fe5b9060005260206000200160009054906101000a900473ffffffffffffffffffffffffffffffffffffffff1673ffffffffffffffffffffffffffffffffffffffff1673ffffffffffffffffffffffffffffffffffffffff1681526020019081526020016000206000015411155b15611a2657600481815481106119ae57fe5b9060005260206000200160009054906101000a900473ffffffffffffffffffffffffffffffffffffffff168284806001019550815181106119eb57fe5b602002602001019073ffffffffffffffffffffffffffffffffffffffff16908173ffffffffffffffffffffffffffffffffffffffff16815250505b611ecf565b60008060048381548110611a3b57fe5b9060005260206000200160009054906101000a900473ffffffffffffffffffffffffffffffffffffffff1673ffffffffffffffffffffffffffffffffffffffff1673ffffffffffffffffffffffffffffffffffffffff168152602001908152602001600020600001546001600060048481548110611ab557fe5b9060005260206000200160009054906101000a900473ffffffffffffffffffffffffffffffffffffffff1673ffffffffffffffffffffffffffffffffffffffff1673ffffffffffffffffffffffffffffffffffffffff168152602001908152602001600020600001541115611d3f578585036001600060048481548110611b3857fe5b9060005260206000200160009054906101000a900473ffffffffffffffffffffffffffffffffffffffff1673ffffffffffffffffffffffffffffffffffffffff1673ffffffffffffffffffffffffffffffffffffffff1681526020019081526020016000206000015411611bab57611d3a565b85850360008060048481548110611bbe57fe5b9060005260206000200160009054906101000a900473ffffffffffffffffffffffffffffffffffffffff1673ffffffffffffffffffffffffffffffffffffffff1673ffffffffffffffffffffffffffffffffffffffff1681526020019081526020016000206000015411158015611caf575086850360008060048481548110611c4357fe5b9060005260206000200160009054906101000a900473ffffffffffffffffffffffffffffffffffffffff1673ffffffffffffffffffffffffffffffffffffffff1673ffffffffffffffffffffffffffffffffffffffff1681526020019081526020016000206000015411155b15611d395760048181548110611cc157fe5b9060005260206000200160009054906101000a900473ffffffffffffffffffffffffffffffffffffffff16828480600101955081518110611cfe57fe5b602002602001019073ffffffffffffffffffffffffffffffffffffffff16908173ffffffffffffffffffffffffffffffffffffffff16815250505b5b611ece565b85850360008060048481548110611d5257fe5b9060005260206000200160009054906101000a900473ffffffffffffffffffffffffffffffffffffffff1673ffffffffffffffffffffffffffffffffffffffff1673ffffffffffffffffffffffffffffffffffffffff1681526020019081526020016000206000015411158015611e43575086850360008060048481548110611dd757fe5b9060005260206000200160009054906101000a900473ffffffffffffffffffffffffffffffffffffffff1673ffffffffffffffffffffffffffffffffffffffff1673ffffffffffffffffffffffffffffffffffffffff1681526020019081526020016000206000015411155b15611ecd5760048181548110611e5557fe5b9060005260206000200160009054906101000a900473ffffffffffffffffffffffffffffffffffffffff16828480600101955081518110611e9257fe5b602002602001019073ffffffffffffffffffffffffffffffffffffffff16908173ffffffffffffffffffffffffffffffffffffffff16815250505b5b5b5b8080600101915050611766565b5080925050509392505050565b6060600080905060008090505b8451811015611f40576000611f1f868381518110611f1157fe5b6020026020010151866123c0565b905060008114611f325782806001019350505b508080600101915050611ef7565b50606081604051908082528060200260200182016040528015611f7d57816020015b611f6a6125a0565b815260200190600190039081611f625790505b5090506000915060008090505b85518110156121a6576000611fb2878381518110611fa457fe5b6020026020010151876123c0565b90506000811461219857611fc46125ba565b60026000898581518110611fd457fe5b602002602001015173ffffffffffffffffffffffffffffffffffffffff1673ffffffffffffffffffffffffffffffffffffffff1681526020019081526020016000206000838152602001908152602001600020604051806040016040529081600082018054600181600116156101000203166002900480601f0160208091040260200160405190810160405280929190818152602001828054600181600116156101000203166002900480156120cb5780601f106120a0576101008083540402835291602001916120cb565b820191906000526020600020905b8154815290600101906020018083116120ae57829003601f168201915b50505050508152602001600182018054600181600116156101000203166002900480601f01602080910402602001604051908101604052809291908181526020018280546001816001161561010002031660029004801561216d5780601f106121425761010080835404028352916020019161216d565b820191906000526020600020905b81548152906001019060200180831161215057829003601f168201915b50505050508152505090508084868060010197508151811061218b57fe5b6020026020010181905250505b508080600101915050611f8a565b50809250505092915050565b6121bb816107a3565b156121fb576040517f08c379a00000000000000000000000000000000000000000000000000000000081526004016121f290612ac7565b60405180910390fd5b6040518060400160405280438152602001600115158152506000808373ffffffffffffffffffffffffffffffffffffffff1673ffffffffffffffffffffffffffffffffffffffff1681526020019081526020016000206000820151816000015560208201518160010160006101000a81548160ff02191690831515021790555090505061230e600480548060200260200160405190810160405280929190818152602001828054801561230357602002820191906000526020600020905b8160009054906101000a900473ffffffffffffffffffffffffffffffffffffffff1673ffffffffffffffffffffffffffffffffffffffff16815260200190600101908083116122b9575b5050505050826124a5565b6123795760048190806001815401808255809150509060018203906000526020600020016000909192909190916101000a81548173ffffffffffffffffffffffffffffffffffffffff021916908373ffffffffffffffffffffffffffffffffffffffff160217905550505b43600760008373ffffffffffffffffffffffffffffffffffffffff1673ffffffffffffffffffffffffffffffffffffffff1681526020019081526020016000208190555050565b600080600360008573ffffffffffffffffffffffffffffffffffffffff1673ffffffffffffffffffffffffffffffffffffffff168152602001908152602001600020905060008180549050905060008090505b8181101561247f578483828154811061242857fe5b9060005260206000200154111561247257600081141561244e576000935050505061249f565b82600182038154811061245d57fe5b9060005260206000200154935050505061249f565b8080600101915050612413565b5081600182038154811061248f57fe5b9060005260206000200154925050505b92915050565b600080600090505b8351811015612514578273ffffffffffffffffffffffffffffffffffffffff168482815181106124d957fe5b602002602001015173ffffffffffffffffffffffffffffffffffffffff16141561250757600191505061251a565b80806001019150506124ad565b50600090505b92915050565b828054600181600116156101000203166002900490600052602060002090601f016020900481019282601f1061256157805160ff191683800117855561258f565b8280016001018555821561258f579182015b8281111561258e578251825591602001919060010190612573565b5b50905061259c91906125d4565b5090565b604051806040016040528060608152602001606081525090565b604051806040016040528060608152602001606081525090565b6125f691905b808211156125f25760008160009055506001016125da565b5090565b90565b60008135905061260881612c21565b92915050565b60008083601f84011261262057600080fd5b8235905067ffffffffffffffff81111561263957600080fd5b60208301915083600182028301111561265157600080fd5b9250929050565b60008135905061266781612c38565b92915050565b60006020828403121561267f57600080fd5b600061268d848285016125f9565b91505092915050565b600080600080604085870312156126ac57600080fd5b600085013567ffffffffffffffff8111156126c657600080fd5b6126d28782880161260e565b9450945050602085013567ffffffffffffffff8111156126f157600080fd5b6126fd8782880161260e565b925092505092959194509250565b60006020828403121561271d57600080fd5b600061272b84828501612658565b91505092915050565b6000806040838503121561274757600080fd5b600061275585828601612658565b925050602061276685828601612658565b9150509250929050565b60008060006060848603121561278557600080fd5b600061279386828701612658565b93505060206127a486828701612658565b92505060406127b586828701612658565b9150509250925092565b60006127cb83836127eb565b60208301905092915050565b60006127e383836129d5565b905092915050565b6127f481612ba1565b82525050565b61280381612ba1565b82525050565b600061281482612b22565b61281e8185612b5d565b935061282983612b02565b8060005b8381101561285a57815161284188826127bf565b975061284c83612b43565b92505060018101905061282d565b5085935050505092915050565b600061287282612b2d565b61287c8185612b6e565b93508360208202850161288e85612b12565b8060005b858110156128ca57848403895281516128ab85826127d7565b94506128b683612b50565b925060208a01995050600181019050612892565b50829750879550505050505092915050565b60006128e782612b38565b6128f18185612b7f565b9350612901818560208601612bdd565b61290a81612c10565b840191505092915050565b6000612922601683612b90565b91507f6f70657261746f7220646f65736e2774206578697374000000000000000000006000830152602082019050919050565b6000612962600b83612b90565b91507f6d6f6469667920666173740000000000000000000000000000000000000000006000830152602082019050919050565b60006129a2600e83612b90565b91507f6f70657261746f722065786973740000000000000000000000000000000000006000830152602082019050919050565b600060408301600083015184820360008601526129f282826128dc565b91505060208301518482036020860152612a0c82826128dc565b9150508091505092915050565b612a2281612bd3565b82525050565b6000602082019050612a3d60008301846127fa565b92915050565b60006020820190508181036000830152612a5d8184612809565b905092915050565b60006020820190508181036000830152612a7f8184612867565b905092915050565b60006020820190508181036000830152612aa081612915565b9050919050565b60006020820190508181036000830152612ac081612955565b9050919050565b60006020820190508181036000830152612ae081612995565b9050919050565b6000602082019050612afc6000830184612a19565b92915050565b6000819050602082019050919050565b6000819050602082019050919050565b600081519050919050565b600081519050919050565b600081519050919050565b6000602082019050919050565b6000602082019050919050565b600082825260208201905092915050565b600082825260208201905092915050565b600082825260208201905092915050565b600082825260208201905092915050565b6000612bac82612bb3565b9050919050565b600073ffffffffffffffffffffffffffffffffffffffff82169050919050565b6000819050919050565b60005b83811015612bfb578082015181840152602081019050612be0565b83811115612c0a576000848401525b50505050565b6000601f19601f8301169050919050565b612c2a81612ba1565b8114612c3557600080fd5b50565b612c4181612bd3565b8114612c4c57600080fd5b5056fea365627a7a723158200f9dc22efeddf75e6a9ba427705cafa87652e34925f56807c03c5576bbe852486c6578706572696d656e74616cf564736f6c63430005100040",
  "source": "pragma solidity ^0.5.11;\npragma experimental ABIEncoderV2;\n\ncontract NodesManager {\n\n    struct State {\n        uint256 height;\n        bool isSet;\n    }\n\n    // \n    mapping(address=>State) whiteTable;\n    mapping(address=>State) blackTable;\n\n    struct Config {\n        string pubkey;\n        string networkAddresses;\n    }\n\n    // \n    mapping(address=>mapping(uint256=>Config)) configTable;\n\n    // \n    mapping(address=>uint256[]) versions;\n\n    // operator\n    address[] operatorKeys;\n\n    // operatorpubkey\n    mapping(address=>string) operator2pubkeys;\n\n    address admin;\n\n    // adminoperator\n    mapping(address=>uint256) modifys;\n\n    // (adminoperator)\n    uint256 lastChanged;\n\n    // adminoperator\n    uint256 public modify_frequency;\n\n    modifier onlyAdmin{\n        require(msg.sender == admin);\n        _;\n    }\n\n    constructor (uint256 _modify_frequency) public {\n        admin = msg.sender;\n        modify_frequency = _modify_frequency;\n//        emit OPERATOR(admin);\n        // _addNode(0xFE41F149BDa2c270E4b8F3F3Ba50f2c83325e51e);\n    }\n\n\n    // \n    function getAdmin() external view\n    returns (address){\n        return admin;\n    }\n\n\n    function setModifyFrequency(uint256 _modify_frequency) external onlyAdmin{\n        modify_frequency = _modify_frequency;\n    }\n\n    event BLOCKNUMBER(uint256 height);\n    event OPERATOR(address operator);\n\n    function addNode(address operator) onlyAdmin external {\n        // [1] operator\n        require(block.number >= (modifys[operator] + modify_frequency), \"modify fast\");\n\n        // [2] operator\n        _addNode(operator);\n\n        // [3] \n        lastChanged = block.number;\n\n        emit BLOCKNUMBER(operatorKeys.length);\n    }\n\n\n    function _addNode(address _operator) internal {\n        // [1] operator\n        require(!isOperatorExist(_operator),\"operator exist\");\n\n        // [2] \n        whiteTable[_operator] = State(block.number, true);\n\n        if (!contains(operatorKeys,_operator)) {\n            operatorKeys.push(_operator);\n        }\n\n        // [3] adminoperator\n        modifys[_operator] = block.number;\n\n    }\n\n    function removeNode(address operator) onlyAdmin external {\n\n        // [1] operator\n        require(block.number >= (modifys[operator] + modify_frequency), \"modify fast\");\n\n        // [2] operator\n        require(isOperatorExist(operator),\"operator doesn't exist\");\n\n        // [3] \n        blackTable[operator] = State(block.number, true);\n\n        // [4] \n        lastChanged = block.number;\n\n        // [5] adminoperator\n        modifys[operator] = block.number;\n\n        emit BLOCKNUMBER(block.number);\n    }\n\n    function updateNodeConfig(string calldata pubkey, string calldata networkAddresses) external {\n\n        // [1] operator\n        require(isOperatorExist(msg.sender),\"operator doesn't exist\");\n\n        // [2] \n        // require(strCompare(operator2pubkeys[msg.sender],pubkey) == 0, \"doesn't match\");\n\n        // [3] \n        doUpdate(msg.sender, pubkey, networkAddresses);\n\n        emit BLOCKNUMBER(block.number);\n\n    }\n\n    function doUpdate(address operator, string memory pubkey, string memory networkAddresses) internal {\n        // [1] \n        configTable[operator][block.number] = Config(pubkey, networkAddresses);\n        versions[operator].push(block.number);\n\n        // [2] \n        lastChanged = block.number;\n    }\n\n\n    // p2poperator\n    function getOperatorsForP2p() external view\n    returns (address[] memory){\n        return findAvailableOperatorForP2p();\n    }\n\n    // operator\n    function getOperatorForConsensus(uint256 sync_height, uint256 commit_height, uint256 target_height) external view\n    returns (address[] memory) {\n        return findAvailableOperatorForConsensus(sync_height, commit_height, target_height);\n    }\n\n    // for p2p\n    function getAvailableNodesForP2p() external view\n    returns (Config[] memory){\n\n        address[] memory operators = findAvailableOperatorForP2p();\n\n        Config[] memory configs = findAvailableConfigByOperators(operators);\n\n        return configs;\n\n    }\n\n    function findAvailableConfigByOperators(address[] memory operators) internal view\n    returns (Config[] memory){\n        uint256 j = 0;\n        for(uint256 i = 0; i<operators.length; i++) {\n            if (versions[operators[i]].length != 0 ) {\n                j++;\n            }\n        }\n\n        Config[] memory res = new Config[](j);\n\n        j = 0;\n        for(uint256 i = 0; i<operators.length; i++) {\n            if (versions[operators[i]].length != 0) {\n                uint256 versionLength = versions[operators[i]].length;\n                uint256 availableVersion = versions[operators[i]][versionLength-1];\n                res[j++] = configTable[operators[i]][availableVersion];\n            }\n        }\n\n        return res;\n    }\n\n    function findAvailableOperatorForP2p() internal view\n    returns (address[] memory){\n        uint256 j = 0;\n        for (uint256 i = 0; i < operatorKeys.length; i++) {\n            if (whiteTable[operatorKeys[i]].height < blackTable[operatorKeys[i]].height) {\n                j++;\n            }\n        }\n\n        address[] memory operators = new address[](operatorKeys.length - j);\n\n        j = 0;\n        for (uint256 i = 0; i < operatorKeys.length; i++) {\n            if (whiteTable[operatorKeys[i]].height > blackTable[operatorKeys[i]].height) {\n                operators[j++] = operatorKeys[i];\n            }\n        }\n\n        return operators;\n    }\n\n    // for consensus  eg: 100, 30, 200\n    function getAvailableNodesForConsensus(uint256 sync_height, uint256 commit_height) external view\n    returns (Config[] memory){\n\n        uint256 target_height = block.number;\n\n        // find operators for consensus\n        address[] memory operators = findAvailableOperatorForConsensus(sync_height, commit_height, target_height);\n\n        // find configs for p2p\n        Config[] memory configs = findAvailableConfigByOperators(operators, target_height-commit_height);\n\n        return configs;\n\n\n\n    }\n\n    // find operators\n    function findAvailableOperatorForConsensus(uint256 sync_height, uint256 commit_height, uint256 target_height) internal view\n    returns (address[] memory){\n        uint256 j = 0;\n        for (uint256 i = 0; i < operatorKeys.length; i++) {\n\n            if (whiteTable[operatorKeys[i]].isSet == true) {\n                if (blackTable[operatorKeys[i]].isSet == false) {\n                    if (whiteTable[operatorKeys[i]].height <= (target_height-commit_height) && whiteTable[operatorKeys[i]].height <= (target_height-sync_height)) {\n                        j++;\n                    }\n                }\n\n                else if(blackTable[operatorKeys[i]].height > whiteTable[operatorKeys[i]].height) {\n                    if (blackTable[operatorKeys[i]].height <= (target_height-commit_height)) {\n                        // remove\n                    } else if(whiteTable[operatorKeys[i]].height <= (target_height-commit_height) && whiteTable[operatorKeys[i]].height <= (target_height-sync_height)){\n                        j++;\n                    }\n                }\n                else {\n                    if(whiteTable[operatorKeys[i]].height <= (target_height-commit_height) && whiteTable[operatorKeys[i]].height <= (target_height-sync_height)){\n                        j++;\n                    }\n                }\n            }\n        }\n\n        address[] memory operators = new address[](j);\n        j = 0;\n        for (uint256 i = 0; i < operatorKeys.length; i++) {\n\n            if (whiteTable[operatorKeys[i]].isSet == true) {\n                if (blackTable[operatorKeys[i]].isSet == false) {\n                    if (whiteTable[operatorKeys[i]].height <= (target_height-commit_height) && whiteTable[operatorKeys[i]].height <= (target_height-sync_height)) {\n                        operators[j++] = operatorKeys[i];\n                    }\n                }\n\n                else if(blackTable[operatorKeys[i]].height > whiteTable[operatorKeys[i]].height) {\n                    if (blackTable[operatorKeys[i]].height <= (target_height-commit_height)) {\n                        // remove\n                    } else if(whiteTable[operatorKeys[i]].height <= (target_height-commit_height) && whiteTable[operatorKeys[i]].height <= (target_height-sync_height)){\n                        operators[j++] = operatorKeys[i];\n                    }\n                }\n                else {\n                    if(whiteTable[operatorKeys[i]].height <= (target_height-commit_height) && whiteTable[operatorKeys[i]].height <= (target_height-sync_height)){\n                        operators[j++] = operatorKeys[i];\n\n                    }\n                }\n            }\n        }\n\n        return operators;\n\n    }\n\n    function findAvailableConfigByOperators(address[] memory operators, uint256 target_version) internal view\n    returns (Config[] memory){\n\n        uint256 j = 0;\n\n        for(uint256 i = 0; i<operators.length; i++) {\n            uint256 availableVersion = _getAvailableVersion(operators[i],target_version);\n            if(availableVersion != 0) {\n                j++;\n            }\n        }\n\n        Config[] memory res = new Config[](j);\n\n        j = 0;\n        for(uint256 i = 0; i<operators.length; i++) {\n            uint256 availableVersion = _getAvailableVersion(operators[i],target_version);\n            if(availableVersion != 0) {\n                Config memory temp = configTable[operators[i]][availableVersion];\n                res[j++] = temp;\n            }\n        }\n        return res;\n\n    }\n\n    function _getAvailableVersion(address key, uint256 target_version) internal view\n    returns (uint256) {\n        uint256[] storage version = versions[key];\n        uint256 length = version.length;\n        for(uint256 i = 0; i<length; i++) {\n            if(version[i] > target_version) {\n                // 0\n                if (i==0) {\n                    return 0;\n                }\n                return version[i-1];\n            }\n        }\n\n        return version[length-1];\n    }\n\n    function getLastChanged() external view\n    returns (uint256){\n        return lastChanged;\n    }\n\n    function isOperatorExist(address operator) internal view\n    returns (bool){\n        if (whiteTable[operator].isSet == true) {\n            if (blackTable[operator].isSet == false) {\n                return true;\n            } else if (whiteTable[operator].height > blackTable[operator].height){\n                return true;\n            }\n        }\n\n        return false;\n    }\n\n    function strCompare(string memory _a, string memory _b) internal pure returns (int) {\n        bytes memory a = bytes(_a);\n        bytes memory b = bytes(_b);\n        uint minLength = a.length;\n        if (b.length < minLength) minLength = b.length;\n        for (uint i = 0; i < minLength; i ++)\n            if (a[i] < b[i])\n                return -1;\n            else if (a[i] > b[i])\n                return 1;\n        if (a.length < b.length)\n            return -1;\n        else if (a.length > b.length)\n            return 1;\n        else\n            return 0;\n    }\n\n    function contains(address[] memory array, address key) internal pure\n    returns (bool){\n        for (uint256 i = 0; i<array.length; i++) {\n            if (array[i] == key) {\n                return true;\n            }\n        }\n        return false;\n    }\n\n}\n",
  "sourcePath": "/Users/punk/Documents/code/ethEnv/nodemgr/contracts/NodesManager.sol",
  "compiler": {
    "name": "solc",
    "version": "0.5.16+commit.9c3226ce.Emscripten.clang"
  },
  "schemaVersion": "3.2.5",
  "updatedAt": "2020-09-25T03:20:17.642Z",
  "devdoc": {
    "methods": {}
  },
  "userdoc": {
    "methods": {}
  }
}